S010000073746174696F6E332E73726563DF
S11300000C9434000C9451000C9451000C94510045
S11300100C9451000C9481000C9451000C945100E8
S11300200C9451000C9451000C9451000C94510008
S11300300C9451000C9451000C9451000C945100F8
S11300400C9451000C9451000C9451000C945100E8
S11300500C9451000C9451000C9451000C945100D8
S11300600C9451000C94510011241FBECFEFD8E022
S1130070DEBFCDBF11E0A0E0B1E0EAE1F2E002C0F2
S113008005900D92AE30B107D9F721E0AEE0B1E0B2
S113009001C01D92A431B207E1F70E94F2000C9452
S11300A00B010C940000E0ECF0E0908195FFFDCF93
S11300B08093C60080E090E0089588E08093C100BA
S11300C083E38093C4001092C50080E091E0909394
S11300D01101809310010895E0E8F0E08081816FC0
S11300E08083E0EBF0E08081816C8083E8E8F0E0DD
S11300F08081918191838083E3EBF0E08081808330
S113010008951F920F920FB60F9211242F938F937D
S11301109F93EF93FF934A9935C04B9933C085B1B0
S1130120807F85B985B1856085B92FEF83ED90E334
S1130130215080409040E1F700C0000085B1807FED
S113014085B92FEF83ED90E3215080409040E1F793
S113015000C0000085B1866085B92FEF81E19AE780
S1130160215080409040E1F700C00000E8E8F0E052
S113017080819181906B91838083E3EBF0E08081B7
S1130180808326C04A990EC085B1807F85B92B9A99
S11301902FEF89E698E1215080409040E1F700C0BC
S11301A0000016C04B990EC085B1807F85B9299A8D
S11301B02FEF89E698E1215080409040E1F700C09C
S11301C0000006C085B18A7F85B985B18A6085B98A
S11301D0FF91EF919F918F912F910F900FBE0F90F0
S11301E01F9018950E945D007894EDE6F0E0808100
S11301F08C608083E8E6F0E080818460808384B151
S11302008F6084B90E946C0085B18A7F85B985B1FD
S10D02108A6085B9F9CFF894FFCF96
S111021A00000002000000005300000000007D
S9030000FC
